{
  "_format": "hh-sol-artifact-1",
  "contractName": "DrawNFT",
  "sourceName": "contracts/DrawNFT.sol",
  "abi": [
    {
      "inputs": [],
      "stateMutability": "nonpayable",
      "type": "constructor"
    },
    {
      "anonymous": false,
      "inputs": [
        {
          "indexed": true,
          "internalType": "address",
          "name": "owner",
          "type": "address"
        },
        {
          "indexed": true,
          "internalType": "address",
          "name": "approved",
          "type": "address"
        },
        {
          "indexed": true,
          "internalType": "uint256",
          "name": "tokenId",
          "type": "uint256"
        }
      ],
      "name": "Approval",
      "type": "event"
    },
    {
      "anonymous": false,
      "inputs": [
        {
          "indexed": true,
          "internalType": "address",
          "name": "owner",
          "type": "address"
        },
        {
          "indexed": true,
          "internalType": "address",
          "name": "operator",
          "type": "address"
        },
        {
          "indexed": false,
          "internalType": "bool",
          "name": "approved",
          "type": "bool"
        }
      ],
      "name": "ApprovalForAll",
      "type": "event"
    },
    {
      "anonymous": false,
      "inputs": [
        {
          "indexed": false,
          "internalType": "uint256",
          "name": "nftId",
          "type": "uint256"
        }
      ],
      "name": "MintedNft",
      "type": "event"
    },
    {
      "anonymous": false,
      "inputs": [
        {
          "indexed": true,
          "internalType": "address",
          "name": "previousOwner",
          "type": "address"
        },
        {
          "indexed": true,
          "internalType": "address",
          "name": "newOwner",
          "type": "address"
        }
      ],
      "name": "OwnershipTransferred",
      "type": "event"
    },
    {
      "anonymous": false,
      "inputs": [
        {
          "indexed": true,
          "internalType": "address",
          "name": "from",
          "type": "address"
        },
        {
          "indexed": true,
          "internalType": "address",
          "name": "to",
          "type": "address"
        },
        {
          "indexed": true,
          "internalType": "uint256",
          "name": "tokenId",
          "type": "uint256"
        }
      ],
      "name": "Transfer",
      "type": "event"
    },
    {
      "inputs": [
        {
          "internalType": "address",
          "name": "to",
          "type": "address"
        },
        {
          "internalType": "uint256",
          "name": "tokenId",
          "type": "uint256"
        }
      ],
      "name": "approve",
      "outputs": [],
      "stateMutability": "nonpayable",
      "type": "function"
    },
    {
      "inputs": [
        {
          "internalType": "address",
          "name": "owner",
          "type": "address"
        }
      ],
      "name": "balanceOf",
      "outputs": [
        {
          "internalType": "uint256",
          "name": "",
          "type": "uint256"
        }
      ],
      "stateMutability": "view",
      "type": "function"
    },
    {
      "inputs": [
        {
          "internalType": "address",
          "name": "newSignOwner",
          "type": "address"
        }
      ],
      "name": "changeSignOwner",
      "outputs": [],
      "stateMutability": "nonpayable",
      "type": "function"
    },
    {
      "inputs": [
        {
          "internalType": "uint256",
          "name": "tokenId",
          "type": "uint256"
        }
      ],
      "name": "getApproved",
      "outputs": [
        {
          "internalType": "address",
          "name": "",
          "type": "address"
        }
      ],
      "stateMutability": "view",
      "type": "function"
    },
    {
      "inputs": [
        {
          "internalType": "address",
          "name": "owner",
          "type": "address"
        },
        {
          "internalType": "address",
          "name": "operator",
          "type": "address"
        }
      ],
      "name": "isApprovedForAll",
      "outputs": [
        {
          "internalType": "bool",
          "name": "",
          "type": "bool"
        }
      ],
      "stateMutability": "view",
      "type": "function"
    },
    {
      "inputs": [],
      "name": "name",
      "outputs": [
        {
          "internalType": "string",
          "name": "",
          "type": "string"
        }
      ],
      "stateMutability": "view",
      "type": "function"
    },
    {
      "inputs": [],
      "name": "owner",
      "outputs": [
        {
          "internalType": "address",
          "name": "",
          "type": "address"
        }
      ],
      "stateMutability": "view",
      "type": "function"
    },
    {
      "inputs": [
        {
          "internalType": "uint256",
          "name": "tokenId",
          "type": "uint256"
        }
      ],
      "name": "ownerOf",
      "outputs": [
        {
          "internalType": "address",
          "name": "",
          "type": "address"
        }
      ],
      "stateMutability": "view",
      "type": "function"
    },
    {
      "inputs": [
        {
          "internalType": "address",
          "name": "addr",
          "type": "address"
        }
      ],
      "name": "readNonce",
      "outputs": [
        {
          "internalType": "uint256",
          "name": "",
          "type": "uint256"
        }
      ],
      "stateMutability": "view",
      "type": "function"
    },
    {
      "inputs": [],
      "name": "renounceOwnership",
      "outputs": [],
      "stateMutability": "nonpayable",
      "type": "function"
    },
    {
      "inputs": [
        {
          "internalType": "string",
          "name": "externalTokenURI",
          "type": "string"
        },
        {
          "components": [
            {
              "internalType": "uint8",
              "name": "v",
              "type": "uint8"
            },
            {
              "internalType": "bytes32",
              "name": "r",
              "type": "bytes32"
            },
            {
              "internalType": "bytes32",
              "name": "s",
              "type": "bytes32"
            }
          ],
          "internalType": "struct DrawNFT.SignatureKeys",
          "name": "keys",
          "type": "tuple"
        }
      ],
      "name": "safeMint",
      "outputs": [
        {
          "internalType": "uint256",
          "name": "",
          "type": "uint256"
        }
      ],
      "stateMutability": "payable",
      "type": "function"
    },
    {
      "inputs": [
        {
          "internalType": "address",
          "name": "from",
          "type": "address"
        },
        {
          "internalType": "address",
          "name": "to",
          "type": "address"
        },
        {
          "internalType": "uint256",
          "name": "tokenId",
          "type": "uint256"
        }
      ],
      "name": "safeTransferFrom",
      "outputs": [],
      "stateMutability": "nonpayable",
      "type": "function"
    },
    {
      "inputs": [
        {
          "internalType": "address",
          "name": "from",
          "type": "address"
        },
        {
          "internalType": "address",
          "name": "to",
          "type": "address"
        },
        {
          "internalType": "uint256",
          "name": "tokenId",
          "type": "uint256"
        },
        {
          "internalType": "bytes",
          "name": "data",
          "type": "bytes"
        }
      ],
      "name": "safeTransferFrom",
      "outputs": [],
      "stateMutability": "nonpayable",
      "type": "function"
    },
    {
      "inputs": [
        {
          "internalType": "address",
          "name": "operator",
          "type": "address"
        },
        {
          "internalType": "bool",
          "name": "approved",
          "type": "bool"
        }
      ],
      "name": "setApprovalForAll",
      "outputs": [],
      "stateMutability": "nonpayable",
      "type": "function"
    },
    {
      "inputs": [
        {
          "internalType": "bytes4",
          "name": "interfaceId",
          "type": "bytes4"
        }
      ],
      "name": "supportsInterface",
      "outputs": [
        {
          "internalType": "bool",
          "name": "",
          "type": "bool"
        }
      ],
      "stateMutability": "view",
      "type": "function"
    },
    {
      "inputs": [],
      "name": "symbol",
      "outputs": [
        {
          "internalType": "string",
          "name": "",
          "type": "string"
        }
      ],
      "stateMutability": "view",
      "type": "function"
    },
    {
      "inputs": [
        {
          "internalType": "uint256",
          "name": "tokenId",
          "type": "uint256"
        }
      ],
      "name": "tokenURI",
      "outputs": [
        {
          "internalType": "string",
          "name": "",
          "type": "string"
        }
      ],
      "stateMutability": "view",
      "type": "function"
    },
    {
      "inputs": [
        {
          "internalType": "address",
          "name": "from",
          "type": "address"
        },
        {
          "internalType": "address",
          "name": "to",
          "type": "address"
        },
        {
          "internalType": "uint256",
          "name": "tokenId",
          "type": "uint256"
        }
      ],
      "name": "transferFrom",
      "outputs": [],
      "stateMutability": "nonpayable",
      "type": "function"
    },
    {
      "inputs": [
        {
          "internalType": "address",
          "name": "newOwner",
          "type": "address"
        }
      ],
      "name": "transferOwnership",
      "outputs": [],
      "stateMutability": "nonpayable",
      "type": "function"
    },
    {
      "inputs": [],
      "name": "withdrawMintPayments",
      "outputs": [],
      "stateMutability": "nonpayable",
      "type": "function"
    }
  ],
  "bytecode": "0x60806040527357c5abf82f08dd751645846b21ab14e8f4124aa5600a60006101000a81548173ffffffffffffffffffffffffffffffffffffffff021916908373ffffffffffffffffffffffffffffffffffffffff1602179055503480156200006657600080fd5b506040518060400160405280600781526020017f447261774e4654000000000000000000000000000000000000000000000000008152506040518060400160405280600381526020017f44525700000000000000000000000000000000000000000000000000000000008152508160009081620000e4919062000467565b508060019081620000f6919062000467565b505050620001196200010d6200011f60201b60201c565b6200012760201b60201c565b6200054e565b600033905090565b6000600760009054906101000a900473ffffffffffffffffffffffffffffffffffffffff16905081600760006101000a81548173ffffffffffffffffffffffffffffffffffffffff021916908373ffffffffffffffffffffffffffffffffffffffff1602179055508173ffffffffffffffffffffffffffffffffffffffff168173ffffffffffffffffffffffffffffffffffffffff167f8be0079c531659141344cd1fd0a4f28419497f9722a3daafe3b4186f6b6457e060405160405180910390a35050565b600081519050919050565b7f4e487b7100000000000000000000000000000000000000000000000000000000600052604160045260246000fd5b7f4e487b7100000000000000000000000000000000000000000000000000000000600052602260045260246000fd5b600060028204905060018216806200026f57607f821691505b60208210810362000285576200028462000227565b5b50919050565b60008190508160005260206000209050919050565b60006020601f8301049050919050565b600082821b905092915050565b600060088302620002ef7fffffffffffffffffffffffffffffffffffffffffffffffffffffffffffffffff82620002b0565b620002fb8683620002b0565b95508019841693508086168417925050509392505050565b6000819050919050565b6000819050919050565b600062000348620003426200033c8462000313565b6200031d565b62000313565b9050919050565b6000819050919050565b620003648362000327565b6200037c62000373826200034f565b848454620002bd565b825550505050565b600090565b6200039362000384565b620003a081848462000359565b505050565b5b81811015620003c857620003bc60008262000389565b600181019050620003a6565b5050565b601f8211156200041757620003e1816200028b565b620003ec84620002a0565b81016020851015620003fc578190505b620004146200040b85620002a0565b830182620003a5565b50505b505050565b600082821c905092915050565b60006200043c600019846008026200041c565b1980831691505092915050565b600062000457838362000429565b9150826002028217905092915050565b6200047282620001ed565b67ffffffffffffffff8111156200048e576200048d620001f8565b5b6200049a825462000256565b620004a7828285620003cc565b600060209050601f831160018114620004df5760008415620004ca578287015190505b620004d6858262000449565b86555062000546565b601f198416620004ef866200028b565b60005b828110156200051957848901518255600182019150602085019450602081019050620004f2565b8683101562000539578489015162000535601f89168262000429565b8355505b6001600288020188555050505b505050505050565b613d88806200055e6000396000f3fe60806040526004361061011f5760003560e01c806370a08231116100a0578063a22cb46511610064578063a22cb465146103d8578063b88d4fde14610401578063c87b56dd1461042a578063e985e9c514610467578063f2fde38b146104a45761011f565b806370a08231146102f1578063715018a61461032e57806377788757146103455780638da5cb5b1461038257806395d89b41146103ad5761011f565b806323b872dd116100e757806323b872dd1461021b57806342842e0e1461024457806362b9c6001461026d5780636352211e146102845780636cef76b1146102c15761011f565b806301ffc9a71461012457806306fdde0314610161578063081812fc1461018c578063095ea7b3146101c95780631b583082146101f2575b600080fd5b34801561013057600080fd5b5061014b6004803603810190610146919061262f565b6104cd565b6040516101589190612677565b60405180910390f35b34801561016d57600080fd5b506101766105af565b6040516101839190612722565b60405180910390f35b34801561019857600080fd5b506101b360048036038101906101ae919061277a565b610641565b6040516101c091906127e8565b60405180910390f35b3480156101d557600080fd5b506101f060048036038101906101eb919061282f565b610687565b005b3480156101fe57600080fd5b506102196004803603810190610214919061286f565b61079e565b005b34801561022757600080fd5b50610242600480360381019061023d919061289c565b610859565b005b34801561025057600080fd5b5061026b6004803603810190610266919061289c565b6108b9565b005b34801561027957600080fd5b506102826108d9565b005b34801561029057600080fd5b506102ab60048036038101906102a6919061277a565b610990565b6040516102b891906127e8565b60405180910390f35b6102db60048036038101906102d69190612978565b610a16565b6040516102e891906129e7565b60405180910390f35b3480156102fd57600080fd5b506103186004803603810190610313919061286f565b610de4565b60405161032591906129e7565b60405180910390f35b34801561033a57600080fd5b50610343610e9b565b005b34801561035157600080fd5b5061036c6004803603810190610367919061286f565b610eaf565b60405161037991906129e7565b60405180910390f35b34801561038e57600080fd5b50610397610eff565b6040516103a491906127e8565b60405180910390f35b3480156103b957600080fd5b506103c2610f29565b6040516103cf9190612722565b60405180910390f35b3480156103e457600080fd5b506103ff60048036038101906103fa9190612a2e565b610fbb565b005b34801561040d57600080fd5b5061042860048036038101906104239190612b9e565b610fd1565b005b34801561043657600080fd5b50610451600480360381019061044c919061277a565b611033565b60405161045e9190612722565b60405180910390f35b34801561047357600080fd5b5061048e60048036038101906104899190612c21565b611145565b60405161049b9190612677565b60405180910390f35b3480156104b057600080fd5b506104cb60048036038101906104c6919061286f565b6111d9565b005b60007f80ac58cd000000000000000000000000000000000000000000000000000000007bffffffffffffffffffffffffffffffffffffffffffffffffffffffff1916827bffffffffffffffffffffffffffffffffffffffffffffffffffffffff1916148061059857507f5b5e139f000000000000000000000000000000000000000000000000000000007bffffffffffffffffffffffffffffffffffffffffffffffffffffffff1916827bffffffffffffffffffffffffffffffffffffffffffffffffffffffff1916145b806105a857506105a78261125c565b5b9050919050565b6060600080546105be90612c90565b80601f01602080910402602001604051908101604052809291908181526020018280546105ea90612c90565b80156106375780601f1061060c57610100808354040283529160200191610637565b820191906000526020600020905b81548152906001019060200180831161061a57829003601f168201915b5050505050905090565b600061064c826112c6565b6004600083815260200190815260200160002060009054906101000a900473ffffffffffffffffffffffffffffffffffffffff169050919050565b600061069282610990565b90508073ffffffffffffffffffffffffffffffffffffffff168373ffffffffffffffffffffffffffffffffffffffff1603610702576040517f08c379a00000000000000000000000000000000000000000000000000000000081526004016106f990612d33565b60405180910390fd5b8073ffffffffffffffffffffffffffffffffffffffff16610721611311565b73ffffffffffffffffffffffffffffffffffffffff161480610750575061074f8161074a611311565b611145565b5b61078f576040517f08c379a000000000000000000000000000000000000000000000000000000000815260040161078690612dc5565b60405180910390fd5b6107998383611319565b505050565b6107a66113d2565b600073ffffffffffffffffffffffffffffffffffffffff168173ffffffffffffffffffffffffffffffffffffffff1603610815576040517f08c379a000000000000000000000000000000000000000000000000000000000815260040161080c90612e31565b60405180910390fd5b80600a60006101000a81548173ffffffffffffffffffffffffffffffffffffffff021916908373ffffffffffffffffffffffffffffffffffffffff16021790555050565b61086a610864611311565b82611450565b6108a9576040517f08c379a00000000000000000000000000000000000000000000000000000000081526004016108a090612ec3565b60405180910390fd5b6108b48383836114e5565b505050565b6108d483838360405180602001604052806000815250610fd1565b505050565b6108e16113d2565b60003373ffffffffffffffffffffffffffffffffffffffff164760405161090790612f14565b60006040518083038185875af1925050503d8060008114610944576040519150601f19603f3d011682016040523d82523d6000602084013e610949565b606091505b505090508061098d576040517f08c379a000000000000000000000000000000000000000000000000000000000815260040161098490612f75565b60405180910390fd5b50565b60008061099c836117de565b9050600073ffffffffffffffffffffffffffffffffffffffff168173ffffffffffffffffffffffffffffffffffffffff1603610a0d576040517f08c379a0000000000000000000000000000000000000000000000000000000008152600401610a0490612fe1565b60405180910390fd5b80915050919050565b6000816000610a62600960003373ffffffffffffffffffffffffffffffffffffffff1673ffffffffffffffffffffffffffffffffffffffff16815260200190815260200160002061181b565b905060003373ffffffffffffffffffffffffffffffffffffffff1690506000610a8a83611829565b610a958360146118f7565b604051602001610aa692919061303d565b6040516020818303038152906040529050600081604051602001610aca9190613061565b60405160208183030381529060405280519060200120905060006040518060400160405280601c81526020017f19457468657265756d205369676e6564204d6573736167653a0a333200000000815250905060008183604051602001610b319291906130df565b6040516020818303038152906040528051906020012090506000600182896000016020810190610b619190613140565b8a602001358b6040013560405160008152602001604052604051610b88949392919061318b565b6020604051602081039080840390855afa158015610baa573d6000803e3d6000fd5b505050602060405103519050600a60009054906101000a900473ffffffffffffffffffffffffffffffffffffffff1673ffffffffffffffffffffffffffffffffffffffff168173ffffffffffffffffffffffffffffffffffffffff1614610c46576040517f08c379a0000000000000000000000000000000000000000000000000000000008152600401610c3d9061321c565b60405180910390fd5b6000610c52600861181b565b90506115b38110610c98576040517f08c379a0000000000000000000000000000000000000000000000000000000008152600401610c8f90613288565b60405180910390fd5b668e1bc9bf040000341015610ce2576040517f08c379a0000000000000000000000000000000000000000000000000000000008152600401610cd9906132f4565b60405180910390fd5b610cec6008611b33565b6000610cf8600861181b565b9050610d043382611b49565b610d52818f8f8080601f016020809104026020016040519081016040528093929190818152602001838380828437600081840152601f19601f82011690508083019250505050505050611b67565b7fd4136d39a3898eaf9b7b4498f616ad832198c51b321cdf8be4fac22d68801f7e81604051610d8191906129e7565b60405180910390a1809a505050610dd5600960003373ffffffffffffffffffffffffffffffffffffffff1673ffffffffffffffffffffffffffffffffffffffff168152602001908152602001600020611b33565b50505050505050509392505050565b60008073ffffffffffffffffffffffffffffffffffffffff168273ffffffffffffffffffffffffffffffffffffffff1603610e54576040517f08c379a0000000000000000000000000000000000000000000000000000000008152600401610e4b90613386565b60405180910390fd5b600360008373ffffffffffffffffffffffffffffffffffffffff1673ffffffffffffffffffffffffffffffffffffffff168152602001908152602001600020549050919050565b610ea36113d2565b610ead6000611bd4565b565b6000610ef8600960008473ffffffffffffffffffffffffffffffffffffffff1673ffffffffffffffffffffffffffffffffffffffff16815260200190815260200160002061181b565b9050919050565b6000600760009054906101000a900473ffffffffffffffffffffffffffffffffffffffff16905090565b606060018054610f3890612c90565b80601f0160208091040260200160405190810160405280929190818152602001828054610f6490612c90565b8015610fb15780601f10610f8657610100808354040283529160200191610fb1565b820191906000526020600020905b815481529060010190602001808311610f9457829003601f168201915b5050505050905090565b610fcd610fc6611311565b8383611c9a565b5050565b610fe2610fdc611311565b83611450565b611021576040517f08c379a000000000000000000000000000000000000000000000000000000000815260040161101890612ec3565b60405180910390fd5b61102d84848484611e06565b50505050565b606061103e826112c6565b600060066000848152602001908152602001600020805461105e90612c90565b80601f016020809104026020016040519081016040528092919081815260200182805461108a90612c90565b80156110d75780601f106110ac576101008083540402835291602001916110d7565b820191906000526020600020905b8154815290600101906020018083116110ba57829003601f168201915b5050505050905060006110e8611e62565b905060008151036110fd578192505050611140565b60008251111561113257808260405160200161111a92919061303d565b60405160208183030381529060405292505050611140565b61113b84611e79565b925050505b919050565b6000600560008473ffffffffffffffffffffffffffffffffffffffff1673ffffffffffffffffffffffffffffffffffffffff16815260200190815260200160002060008373ffffffffffffffffffffffffffffffffffffffff1673ffffffffffffffffffffffffffffffffffffffff16815260200190815260200160002060009054906101000a900460ff16905092915050565b6111e16113d2565b600073ffffffffffffffffffffffffffffffffffffffff168173ffffffffffffffffffffffffffffffffffffffff1603611250576040517f08c379a000000000000000000000000000000000000000000000000000000000815260040161124790613418565b60405180910390fd5b61125981611bd4565b50565b60007f01ffc9a7000000000000000000000000000000000000000000000000000000007bffffffffffffffffffffffffffffffffffffffffffffffffffffffff1916827bffffffffffffffffffffffffffffffffffffffffffffffffffffffff1916149050919050565b6112cf81611ee1565b61130e576040517f08c379a000000000000000000000000000000000000000000000000000000000815260040161130590612fe1565b60405180910390fd5b50565b600033905090565b816004600083815260200190815260200160002060006101000a81548173ffffffffffffffffffffffffffffffffffffffff021916908373ffffffffffffffffffffffffffffffffffffffff160217905550808273ffffffffffffffffffffffffffffffffffffffff1661138c83610990565b73ffffffffffffffffffffffffffffffffffffffff167f8c5be1e5ebec7d5bd14f71427d1e84f3dd0314c0f7b2291e5b200ac8c7c3b92560405160405180910390a45050565b6113da611311565b73ffffffffffffffffffffffffffffffffffffffff166113f8610eff565b73ffffffffffffffffffffffffffffffffffffffff161461144e576040517f08c379a000000000000000000000000000000000000000000000000000000000815260040161144590613484565b60405180910390fd5b565b60008061145c83610990565b90508073ffffffffffffffffffffffffffffffffffffffff168473ffffffffffffffffffffffffffffffffffffffff16148061149e575061149d8185611145565b5b806114dc57508373ffffffffffffffffffffffffffffffffffffffff166114c484610641565b73ffffffffffffffffffffffffffffffffffffffff16145b91505092915050565b8273ffffffffffffffffffffffffffffffffffffffff1661150582610990565b73ffffffffffffffffffffffffffffffffffffffff161461155b576040517f08c379a000000000000000000000000000000000000000000000000000000000815260040161155290613516565b60405180910390fd5b600073ffffffffffffffffffffffffffffffffffffffff168273ffffffffffffffffffffffffffffffffffffffff16036115ca576040517f08c379a00000000000000000000000000000000000000000000000000000000081526004016115c1906135a8565b60405180910390fd5b6115d78383836001611f22565b8273ffffffffffffffffffffffffffffffffffffffff166115f782610990565b73ffffffffffffffffffffffffffffffffffffffff161461164d576040517f08c379a000000000000000000000000000000000000000000000000000000000815260040161164490613516565b60405180910390fd5b6004600082815260200190815260200160002060006101000a81549073ffffffffffffffffffffffffffffffffffffffff02191690556001600360008573ffffffffffffffffffffffffffffffffffffffff1673ffffffffffffffffffffffffffffffffffffffff168152602001908152602001600020600082825403925050819055506001600360008473ffffffffffffffffffffffffffffffffffffffff1673ffffffffffffffffffffffffffffffffffffffff16815260200190815260200160002060008282540192505081905550816002600083815260200190815260200160002060006101000a81548173ffffffffffffffffffffffffffffffffffffffff021916908373ffffffffffffffffffffffffffffffffffffffff160217905550808273ffffffffffffffffffffffffffffffffffffffff168473ffffffffffffffffffffffffffffffffffffffff167fddf252ad1be2c89b69c2b068fc378daa952ba7f163c4a11628f55a4df523b3ef60405160405180910390a46117d98383836001612048565b505050565b60006002600083815260200190815260200160002060009054906101000a900473ffffffffffffffffffffffffffffffffffffffff169050919050565b600081600001549050919050565b6060600060016118388461204e565b01905060008167ffffffffffffffff81111561185757611856612a73565b5b6040519080825280601f01601f1916602001820160405280156118895781602001600182028036833780820191505090505b509050600082602001820190505b6001156118ec578080600190039150507f3031323334353637383961626364656600000000000000000000000000000000600a86061a8153600a85816118e0576118df6135c8565b5b04945060008503611897575b819350505050919050565b60606000600283600261190a9190613626565b6119149190613668565b67ffffffffffffffff81111561192d5761192c612a73565b5b6040519080825280601f01601f19166020018201604052801561195f5781602001600182028036833780820191505090505b5090507f3000000000000000000000000000000000000000000000000000000000000000816000815181106119975761199661369c565b5b60200101907effffffffffffffffffffffffffffffffffffffffffffffffffffffffffffff1916908160001a9053507f7800000000000000000000000000000000000000000000000000000000000000816001815181106119fb576119fa61369c565b5b60200101907effffffffffffffffffffffffffffffffffffffffffffffffffffffffffffff1916908160001a90535060006001846002611a3b9190613626565b611a459190613668565b90505b6001811115611ae5577f3031323334353637383961626364656600000000000000000000000000000000600f861660108110611a8757611a8661369c565b5b1a60f81b828281518110611a9e57611a9d61369c565b5b60200101907effffffffffffffffffffffffffffffffffffffffffffffffffffffffffffff1916908160001a905350600485901c945080611ade906136cb565b9050611a48565b5060008414611b29576040517f08c379a0000000000000000000000000000000000000000000000000000000008152600401611b2090613740565b60405180910390fd5b8091505092915050565b6001816000016000828254019250508190555050565b611b638282604051806020016040528060008152506121a1565b5050565b611b7082611ee1565b611baf576040517f08c379a0000000000000000000000000000000000000000000000000000000008152600401611ba6906137d2565b60405180910390fd5b80600660008481526020019081526020016000209081611bcf919061399e565b505050565b6000600760009054906101000a900473ffffffffffffffffffffffffffffffffffffffff16905081600760006101000a81548173ffffffffffffffffffffffffffffffffffffffff021916908373ffffffffffffffffffffffffffffffffffffffff1602179055508173ffffffffffffffffffffffffffffffffffffffff168173ffffffffffffffffffffffffffffffffffffffff167f8be0079c531659141344cd1fd0a4f28419497f9722a3daafe3b4186f6b6457e060405160405180910390a35050565b8173ffffffffffffffffffffffffffffffffffffffff168373ffffffffffffffffffffffffffffffffffffffff1603611d08576040517f08c379a0000000000000000000000000000000000000000000000000000000008152600401611cff90613abc565b60405180910390fd5b80600560008573ffffffffffffffffffffffffffffffffffffffff1673ffffffffffffffffffffffffffffffffffffffff16815260200190815260200160002060008473ffffffffffffffffffffffffffffffffffffffff1673ffffffffffffffffffffffffffffffffffffffff16815260200190815260200160002060006101000a81548160ff0219169083151502179055508173ffffffffffffffffffffffffffffffffffffffff168373ffffffffffffffffffffffffffffffffffffffff167f17307eab39ab6107e8899845ad3d59bd9653f200f220920489ca2b5937696c3183604051611df99190612677565b60405180910390a3505050565b611e118484846114e5565b611e1d848484846121fc565b611e5c576040517f08c379a0000000000000000000000000000000000000000000000000000000008152600401611e5390613b4e565b60405180910390fd5b50505050565b606060405180602001604052806000815250905090565b6060611e84826112c6565b6000611e8e611e62565b90506000815111611eae5760405180602001604052806000815250611ed9565b80611eb884611829565b604051602001611ec992919061303d565b6040516020818303038152906040525b915050919050565b60008073ffffffffffffffffffffffffffffffffffffffff16611f03836117de565b73ffffffffffffffffffffffffffffffffffffffff1614159050919050565b600181111561204257600073ffffffffffffffffffffffffffffffffffffffff168473ffffffffffffffffffffffffffffffffffffffff1614611fb65780600360008673ffffffffffffffffffffffffffffffffffffffff1673ffffffffffffffffffffffffffffffffffffffff1681526020019081526020016000206000828254611fae9190613b6e565b925050819055505b600073ffffffffffffffffffffffffffffffffffffffff168373ffffffffffffffffffffffffffffffffffffffff16146120415780600360008573ffffffffffffffffffffffffffffffffffffffff1673ffffffffffffffffffffffffffffffffffffffff16815260200190815260200160002060008282546120399190613668565b925050819055505b5b50505050565b50505050565b600080600090507a184f03e93ff9f4daa797ed6e38ed64bf6a1f01000000000000000083106120ac577a184f03e93ff9f4daa797ed6e38ed64bf6a1f01000000000000000083816120a2576120a16135c8565b5b0492506040810190505b6d04ee2d6d415b85acef810000000083106120e9576d04ee2d6d415b85acef810000000083816120df576120de6135c8565b5b0492506020810190505b662386f26fc10000831061211857662386f26fc10000838161210e5761210d6135c8565b5b0492506010810190505b6305f5e1008310612141576305f5e1008381612137576121366135c8565b5b0492506008810190505b612710831061216657612710838161215c5761215b6135c8565b5b0492506004810190505b60648310612189576064838161217f5761217e6135c8565b5b0492506002810190505b600a8310612198576001810190505b80915050919050565b6121ab8383612383565b6121b860008484846121fc565b6121f7576040517f08c379a00000000000000000000000000000000000000000000000000000000081526004016121ee90613b4e565b60405180910390fd5b505050565b600061221d8473ffffffffffffffffffffffffffffffffffffffff166125a0565b15612376578373ffffffffffffffffffffffffffffffffffffffff1663150b7a02612246611311565b8786866040518563ffffffff1660e01b81526004016122689493929190613bec565b6020604051808303816000875af19250505080156122a457506040513d601f19601f820116820180604052508101906122a19190613c4d565b60015b612326573d80600081146122d4576040519150601f19603f3d011682016040523d82523d6000602084013e6122d9565b606091505b50600081510361231e576040517f08c379a000000000000000000000000000000000000000000000000000000000815260040161231590613b4e565b60405180910390fd5b805181602001fd5b63150b7a0260e01b7bffffffffffffffffffffffffffffffffffffffffffffffffffffffff1916817bffffffffffffffffffffffffffffffffffffffffffffffffffffffff19161491505061237b565b600190505b949350505050565b600073ffffffffffffffffffffffffffffffffffffffff168273ffffffffffffffffffffffffffffffffffffffff16036123f2576040517f08c379a00000000000000000000000000000000000000000000000000000000081526004016123e990613cc6565b60405180910390fd5b6123fb81611ee1565b1561243b576040517f08c379a000000000000000000000000000000000000000000000000000000000815260040161243290613d32565b60405180910390fd5b612449600083836001611f22565b61245281611ee1565b15612492576040517f08c379a000000000000000000000000000000000000000000000000000000000815260040161248990613d32565b60405180910390fd5b6001600360008473ffffffffffffffffffffffffffffffffffffffff1673ffffffffffffffffffffffffffffffffffffffff16815260200190815260200160002060008282540192505081905550816002600083815260200190815260200160002060006101000a81548173ffffffffffffffffffffffffffffffffffffffff021916908373ffffffffffffffffffffffffffffffffffffffff160217905550808273ffffffffffffffffffffffffffffffffffffffff16600073ffffffffffffffffffffffffffffffffffffffff167fddf252ad1be2c89b69c2b068fc378daa952ba7f163c4a11628f55a4df523b3ef60405160405180910390a461259c600083836001612048565b5050565b6000808273ffffffffffffffffffffffffffffffffffffffff163b119050919050565b6000604051905090565b600080fd5b600080fd5b60007fffffffff0000000000000000000000000000000000000000000000000000000082169050919050565b61260c816125d7565b811461261757600080fd5b50565b60008135905061262981612603565b92915050565b600060208284031215612645576126446125cd565b5b60006126538482850161261a565b91505092915050565b60008115159050919050565b6126718161265c565b82525050565b600060208201905061268c6000830184612668565b92915050565b600081519050919050565b600082825260208201905092915050565b60005b838110156126cc5780820151818401526020810190506126b1565b60008484015250505050565b6000601f19601f8301169050919050565b60006126f482612692565b6126fe818561269d565b935061270e8185602086016126ae565b612717816126d8565b840191505092915050565b6000602082019050818103600083015261273c81846126e9565b905092915050565b6000819050919050565b61275781612744565b811461276257600080fd5b50565b6000813590506127748161274e565b92915050565b6000602082840312156127905761278f6125cd565b5b600061279e84828501612765565b91505092915050565b600073ffffffffffffffffffffffffffffffffffffffff82169050919050565b60006127d2826127a7565b9050919050565b6127e2816127c7565b82525050565b60006020820190506127fd60008301846127d9565b92915050565b61280c816127c7565b811461281757600080fd5b50565b60008135905061282981612803565b92915050565b60008060408385031215612846576128456125cd565b5b60006128548582860161281a565b925050602061286585828601612765565b9150509250929050565b600060208284031215612885576128846125cd565b5b60006128938482850161281a565b91505092915050565b6000806000606084860312156128b5576128b46125cd565b5b60006128c38682870161281a565b93505060206128d48682870161281a565b92505060406128e586828701612765565b9150509250925092565b600080fd5b600080fd5b600080fd5b60008083601f840112612914576129136128ef565b5b8235905067ffffffffffffffff811115612931576129306128f4565b5b60208301915083600182028301111561294d5761294c6128f9565b5b9250929050565b600080fd5b60006060828403121561296f5761296e612954565b5b81905092915050565b600080600060808486031215612991576129906125cd565b5b600084013567ffffffffffffffff8111156129af576129ae6125d2565b5b6129bb868287016128fe565b935093505060206129ce86828701612959565b9150509250925092565b6129e181612744565b82525050565b60006020820190506129fc60008301846129d8565b92915050565b612a0b8161265c565b8114612a1657600080fd5b50565b600081359050612a2881612a02565b92915050565b60008060408385031215612a4557612a446125cd565b5b6000612a538582860161281a565b9250506020612a6485828601612a19565b9150509250929050565b600080fd5b7f4e487b7100000000000000000000000000000000000000000000000000000000600052604160045260246000fd5b612aab826126d8565b810181811067ffffffffffffffff82111715612aca57612ac9612a73565b5b80604052505050565b6000612add6125c3565b9050612ae98282612aa2565b919050565b600067ffffffffffffffff821115612b0957612b08612a73565b5b612b12826126d8565b9050602081019050919050565b82818337600083830152505050565b6000612b41612b3c84612aee565b612ad3565b905082815260208101848484011115612b5d57612b5c612a6e565b5b612b68848285612b1f565b509392505050565b600082601f830112612b8557612b846128ef565b5b8135612b95848260208601612b2e565b91505092915050565b60008060008060808587031215612bb857612bb76125cd565b5b6000612bc68782880161281a565b9450506020612bd78782880161281a565b9350506040612be887828801612765565b925050606085013567ffffffffffffffff811115612c0957612c086125d2565b5b612c1587828801612b70565b91505092959194509250565b60008060408385031215612c3857612c376125cd565b5b6000612c468582860161281a565b9250506020612c578582860161281a565b9150509250929050565b7f4e487b7100000000000000000000000000000000000000000000000000000000600052602260045260246000fd5b60006002820490506001821680612ca857607f821691505b602082108103612cbb57612cba612c61565b5b50919050565b7f4552433732313a20617070726f76616c20746f2063757272656e74206f776e6560008201527f7200000000000000000000000000000000000000000000000000000000000000602082015250565b6000612d1d60218361269d565b9150612d2882612cc1565b604082019050919050565b60006020820190508181036000830152612d4c81612d10565b9050919050565b7f4552433732313a20617070726f76652063616c6c6572206973206e6f7420746f60008201527f6b656e206f776e6572206f7220617070726f76656420666f7220616c6c000000602082015250565b6000612daf603d8361269d565b9150612dba82612d53565b604082019050919050565b60006020820190508181036000830152612dde81612da2565b9050919050565b7f546865207a65726f206164647265737300000000000000000000000000000000600082015250565b6000612e1b60108361269d565b9150612e2682612de5565b602082019050919050565b60006020820190508181036000830152612e4a81612e0e565b9050919050565b7f4552433732313a2063616c6c6572206973206e6f7420746f6b656e206f776e6560008201527f72206f7220617070726f76656400000000000000000000000000000000000000602082015250565b6000612ead602d8361269d565b9150612eb882612e51565b604082019050919050565b60006020820190508181036000830152612edc81612ea0565b9050919050565b600081905092915050565b50565b6000612efe600083612ee3565b9150612f0982612eee565b600082019050919050565b6000612f1f82612ef1565b9150819050919050565b7f436f756c646e277420776974686472617720746865206d6f6e65790000000000600082015250565b6000612f5f601b8361269d565b9150612f6a82612f29565b602082019050919050565b60006020820190508181036000830152612f8e81612f52565b9050919050565b7f4552433732313a20696e76616c696420746f6b656e2049440000000000000000600082015250565b6000612fcb60188361269d565b9150612fd682612f95565b602082019050919050565b60006020820190508181036000830152612ffa81612fbe565b9050919050565b600081905092915050565b600061301782612692565b6130218185613001565b93506130318185602086016126ae565b80840191505092915050565b6000613049828561300c565b9150613055828461300c565b91508190509392505050565b600061306d828461300c565b915081905092915050565b600081519050919050565b600061308e82613078565b6130988185612ee3565b93506130a88185602086016126ae565b80840191505092915050565b6000819050919050565b6000819050919050565b6130d96130d4826130b4565b6130be565b82525050565b60006130eb8285613083565b91506130f782846130c8565b6020820191508190509392505050565b600060ff82169050919050565b61311d81613107565b811461312857600080fd5b50565b60008135905061313a81613114565b92915050565b600060208284031215613156576131556125cd565b5b60006131648482850161312b565b91505092915050565b613176816130b4565b82525050565b61318581613107565b82525050565b60006080820190506131a0600083018761316d565b6131ad602083018661317c565b6131ba604083018561316d565b6131c7606083018461316d565b95945050505050565b7f496e76616c6964205369676e6174757265000000000000000000000000000000600082015250565b600061320660118361269d565b9150613211826131d0565b602082019050919050565b60006020820190508181036000830152613235816131f9565b9050919050565b7f4578636565647320746f6b656e20737570706c79000000000000000000000000600082015250565b600061327260148361269d565b915061327d8261323c565b602082019050919050565b600060208201905081810360008301526132a181613265565b9050919050565b7f4e6f7420656e6f756768204554482073656e7400000000000000000000000000600082015250565b60006132de60138361269d565b91506132e9826132a8565b602082019050919050565b6000602082019050818103600083015261330d816132d1565b9050919050565b7f4552433732313a2061646472657373207a65726f206973206e6f74206120766160008201527f6c6964206f776e65720000000000000000000000000000000000000000000000602082015250565b600061337060298361269d565b915061337b82613314565b604082019050919050565b6000602082019050818103600083015261339f81613363565b9050919050565b7f4f776e61626c653a206e6577206f776e657220697320746865207a65726f206160008201527f6464726573730000000000000000000000000000000000000000000000000000602082015250565b600061340260268361269d565b915061340d826133a6565b604082019050919050565b60006020820190508181036000830152613431816133f5565b9050919050565b7f4f776e61626c653a2063616c6c6572206973206e6f7420746865206f776e6572600082015250565b600061346e60208361269d565b915061347982613438565b602082019050919050565b6000602082019050818103600083015261349d81613461565b9050919050565b7f4552433732313a207472616e736665722066726f6d20696e636f72726563742060008201527f6f776e6572000000000000000000000000000000000000000000000000000000602082015250565b600061350060258361269d565b915061350b826134a4565b604082019050919050565b6000602082019050818103600083015261352f816134f3565b9050919050565b7f4552433732313a207472616e7366657220746f20746865207a65726f2061646460008201527f7265737300000000000000000000000000000000000000000000000000000000602082015250565b600061359260248361269d565b915061359d82613536565b604082019050919050565b600060208201905081810360008301526135c181613585565b9050919050565b7f4e487b7100000000000000000000000000000000000000000000000000000000600052601260045260246000fd5b7f4e487b7100000000000000000000000000000000000000000000000000000000600052601160045260246000fd5b600061363182612744565b915061363c83612744565b925082820261364a81612744565b91508282048414831517613661576136606135f7565b5b5092915050565b600061367382612744565b915061367e83612744565b9250828201905080821115613696576136956135f7565b5b92915050565b7f4e487b7100000000000000000000000000000000000000000000000000000000600052603260045260246000fd5b60006136d682612744565b9150600082036136e9576136e86135f7565b5b600182039050919050565b7f537472696e67733a20686578206c656e67746820696e73756666696369656e74600082015250565b600061372a60208361269d565b9150613735826136f4565b602082019050919050565b600060208201905081810360008301526137598161371d565b9050919050565b7f45524337323155524953746f726167653a2055524920736574206f66206e6f6e60008201527f6578697374656e7420746f6b656e000000000000000000000000000000000000602082015250565b60006137bc602e8361269d565b91506137c782613760565b604082019050919050565b600060208201905081810360008301526137eb816137af565b9050919050565b60008190508160005260206000209050919050565b60006020601f8301049050919050565b600082821b905092915050565b6000600883026138547fffffffffffffffffffffffffffffffffffffffffffffffffffffffffffffffff82613817565b61385e8683613817565b95508019841693508086168417925050509392505050565b6000819050919050565b600061389b61389661389184612744565b613876565b612744565b9050919050565b6000819050919050565b6138b583613880565b6138c96138c1826138a2565b848454613824565b825550505050565b600090565b6138de6138d1565b6138e98184846138ac565b505050565b5b8181101561390d576139026000826138d6565b6001810190506138ef565b5050565b601f82111561395257613923816137f2565b61392c84613807565b8101602085101561393b578190505b61394f61394785613807565b8301826138ee565b50505b505050565b600082821c905092915050565b600061397560001984600802613957565b1980831691505092915050565b600061398e8383613964565b9150826002028217905092915050565b6139a782612692565b67ffffffffffffffff8111156139c0576139bf612a73565b5b6139ca8254612c90565b6139d5828285613911565b600060209050601f831160018114613a0857600084156139f6578287015190505b613a008582613982565b865550613a68565b601f198416613a16866137f2565b60005b82811015613a3e57848901518255600182019150602085019450602081019050613a19565b86831015613a5b5784890151613a57601f891682613964565b8355505b6001600288020188555050505b505050505050565b7f4552433732313a20617070726f766520746f2063616c6c657200000000000000600082015250565b6000613aa660198361269d565b9150613ab182613a70565b602082019050919050565b60006020820190508181036000830152613ad581613a99565b9050919050565b7f4552433732313a207472616e7366657220746f206e6f6e20455243373231526560008201527f63656976657220696d706c656d656e7465720000000000000000000000000000602082015250565b6000613b3860328361269d565b9150613b4382613adc565b604082019050919050565b60006020820190508181036000830152613b6781613b2b565b9050919050565b6000613b7982612744565b9150613b8483612744565b9250828203905081811115613b9c57613b9b6135f7565b5b92915050565b600082825260208201905092915050565b6000613bbe82613078565b613bc88185613ba2565b9350613bd88185602086016126ae565b613be1816126d8565b840191505092915050565b6000608082019050613c0160008301876127d9565b613c0e60208301866127d9565b613c1b60408301856129d8565b8181036060830152613c2d8184613bb3565b905095945050505050565b600081519050613c4781612603565b92915050565b600060208284031215613c6357613c626125cd565b5b6000613c7184828501613c38565b91505092915050565b7f4552433732313a206d696e7420746f20746865207a65726f2061646472657373600082015250565b6000613cb060208361269d565b9150613cbb82613c7a565b602082019050919050565b60006020820190508181036000830152613cdf81613ca3565b9050919050565b7f4552433732313a20746f6b656e20616c7265616479206d696e74656400000000600082015250565b6000613d1c601c8361269d565b9150613d2782613ce6565b602082019050919050565b60006020820190508181036000830152613d4b81613d0f565b905091905056fea2646970667358221220caaa2c8f1280ba7cdc56d481faec70bda41cdfaf2f5b95ec43ca21f085a9448464736f6c63430008110033",
  "linkReferences": {},
  "deployedLinkReferences": {}
}